:020000040804EE
:1000000000000824314E05087D4E0508559D040862
:100010005B9D0408619D0408679D040800000000C2
:100020000000000000000000000000001D2804087F
:100030007D4E050800000000B7280408C728040802
:100040007D4E05087D4E05087D4E05087D4E050850
:100050007D4E05087D4E05087D4E05087D4E050840
:100060007D4E05087D4E05087D4E05087D4E050830
:100070007D4E05087D4E05087D4E05087D4E050820
:100080007D4E05087D4E05087D4E0508A95E0508D4
:10009000B95E0508B55E0508C55E05087D4E050814
:1000A0007D4E05087D4E05087D4E05087D4E0508F0
:1000B0007D4E05087D4E05087D4E05087D4E0508E0
:1000C0007D4E05087D4E05087D4E05087D4E0508D0
:1000D0007D4E05087D4E05087D4E05087D4E0508C0
:1000E0007D4E05087D4E0508000000007D4E050888
:1000F0007D4E05087D4E05087D4E05087D4E0508A0
:100100007D4E0508354B05087D4E05087D4E0508DA
:100110007D4E05087D4E05087D4E05087D4E05087F
:100120007D4E05087D4E05087D4E05087D4E05086F
:100130007D4E0508EF5504087D4E05087D4E0508E7
:100140007D4E05087D4E05080000000000000000FF
:100150007D4E05087D4E05087D4E05087D4E05083F
:100160007D4E05087D4E05087D4E05087D4E05082F
:100170007D4E05087D4E05087D4E050800000000F7
:100180007D4E05087D4E05087D4E05087D4E05080F
:100190007D4E05087D4E05087D4E05087D4E0508FF
:1001A0007D4E05087D4E05087D4E05087D4E0508EF
:1001B0007D4E05087D4E05087D4E05087D4E0508DF
:1001C0007D4E05087D4E05087D4E05087D4E0508CF
:1001D0007D4E05087D4E05087D4E05087D4E0508BF
:1001E0007D4E05087D4E05087D4E05087D4E0508AF
:1001F0007D4E05087D4E05087D4E05087D4E05089F
:100200007D4E05087D4E05087D4E05087D4E05088E
:100210007D4E05087D4E05087D4E05087D4E05087E
:100220007D4E05087D4E05087D4E05087D4E05086E
:100230007D4E05082D4E05087D4E05087D4E0508AE
:100240007D4E05087D4E05087D4E05087D4E05084E
:100250007D4E05087D4E05087D4E05087D4E05083E
:100260007D4E05087D4E05087D4E05087D4E05082E
:100270007D4E05087D4E05087D4E05087D4E05081E
:100280007D4E05087D4E05087D4E050800000000E6
:100290007D4E05087D4E050810B5054C237833B911
:1002A000044B13B10448AFF300800123237010BD49
:1002B00080180024000000007C59060808B5034B94
:1002C0001BB103490348AFF3008008BD00000000E4
:1002D000841800247C590608154B002B08BF134BCB
:1002E0009D46A3F5803A00218B460F461348144AD9
:1002F000121A1BF0A5FE0F4B002B00D098470E4B97
:10030000002B00D098470020002104000D000D486C
:10031000002802D00C480AF0D7FB1BF095F920000A
:10032000290004F05FFC0AF0E3FD00BF00000800B4
:100330000000082400000000414B0408801800243D
:1003400060F70024C9AA04080000000000000000B3
:1003500013B5174CC0B202F011F9164901902046AE
:1003600001F071FF0A220199204601F0B8FFDDED8E
:10037000017AB8EEE77ADFED107A9FED096B27EE90
:10038000277A9FED095BB7EEC77A27EE067B87EEEB
:10039000056BF7EEC67B17EE900A02B010BD00BFEA
:1003A000000000002065214100000000006AF840C4
:1003B000A01E00248C1206083333533B08B54FF4BB
:1003C0001651044800F002FB00211120BDE808404E
:1003D00002F032B9A01E002400B513482DED028BA7
:1003E00083B000F00BFCC8B11120FFF7B1FF08EE9D
:1003F000100A0E490C4801F026FFB7EEC87A022316
:100400000948009353EC172B02F012F8642003B054
:10041000BDEC028B5DF804EB02F080B803B0BDECDC
:10042000028B5DF804FB00BFA01E00249C1206088E
:10043000002070470020704730B5A1F1100400255E
:1004400000F00F02CD7302390009D3B2092ACCBFE4
:10045000373330330B748C42F2D130BD2DE9FF4776
:100460000024061D05468A46904699460094234678
:100470004FF0FF32B1213046CDE9014406F072F968
:1004800029682846DDE90C23CDE9002342464F695F
:100490004B465146B847009423464FF0FF32C121E6
:1004A0003046CDE9014406F05DF9204604B0BDE8D0
:1004B000F0872DE9D04F9B460368924604469B6A1D
:1004C000DDE90889984702460B465046594619F01F
:1004D00061F8134302D00020BDE8D08F2368204686
:1004E0009B6A984702460B464046494619F052F827
:1004F0001343F0D11AEB0806236820464BEB09079B
:100500009B6B9847B94208BFB0422CBF0120002026
:10051000E2E701682DE9F04114461D46096B0646E5
:10052000884702460B462046294619F033F8134304
:1005300002D00020BDE8F081DDE906233046A7188F
:1005400045EB030817F1FF323368196B48F1FF33AD
:10055000884702460B463846414619F01BF81343BC
:10056000E7D1336830469B6B9847414508BFB84296
:100570002CBF01200020DDE72DE9D04F9B4603680A
:10058000924604465B6ADDE90889984702460B46B5
:100590005046594618F0FEFF134302D00020BDE834
:1005A000D08F236820465B6A984702460B46404638
:1005B000494618F0EFFF1343F0D11AEB0806236801
:1005C00020464BEB09079B6B9847B94208BFB042E6
:1005D0002CBF01200020E2E7074B10B50446036062
:1005E000806A08B109F092F8236913B19B68201D55
:1005F0009847204610BD00BF941E060810B504465B
:10060000FFF7EAFFFC2120460AF0E2FC204610BD7D
:10061000C220704700B5C3B01622172103A805F009
:1006200007FF4FF4A17302AA1021ADF80830002390
:1006300003A80093022305F04CFE03A8FFF7CCFFAC
:1006400043B05DF804FB03A8FFF7C6FF18F000FCF9
:10065000244830B5037887B0BFF35B8F13F00104F3
:100660001CD10AF03FFAC8B11F4B66223B211F483C
:10067000CDE903435A23CDE901323D233C220093C7
:1006800057230CF005FA194C194B164823600AF051
:100690004BFA184A204618490AF014FA13480CF08D
:1006A000ABFB164D1A22002329461048CDE9002342
:1006B00000230022FFF7D2FE2B780446B52B04D18D
:1006C0000F4B01221D600F4B1A7008480CF076FA90
:1006D000B4FA84F0400907B030BD02480AF02CFC9F
:1006E00018F0B6FBC0180024005A6202C818002493
:1006F000B41206080000002439080408D01A0024A7
:1007000004000024C41800241D4B01211D4AA6200A
:1007100070B51A6001F0D4FF0121A62002F050F854
:10072000FFF778FF184B43F2D2021A60FFF790FFF1
:10073000164B1B7833B1164B1B689A8840F209435D
:100740009A421BD8134B9B6D03F46043B3F5004FE3
:1007500014D001F0C5FE104D044601F0D3FE06464C
:1007600001F0D0FE801BA842FAD901F0B9FE001BAF
:10077000642803D0BDE8704016F0CABB70BD00BF4E
:100780009C1800240040005800400052C418002467
:1007900004000024004402589F86010010B504465E
:1007A0000CF09CFF2146FFF747FE0CF09DFF04F183
:1007B0001001FFF741FE0CF09DFF04F12001FFF74F
:1007C0003BFE302010BD000008B54DF659720021E7
:1007D000074812F037FFBFF34F8F0649064BCA6830
:1007E00002F4E0621343CB60BFF34F8F00BFFDE71D
:1007F0009C18002400ED00E00400FA0538B5074B12
:100800000546044645F8BC3B0CF0D8F928460AF0EA
:10081000FFFD201D05F0E6FF204638BD6C3C0608B4
:1008200010B50446FFF7EAFF4FF4027120460AF0C4
:10083000CFFB204610BD0000034B10B504460360FB
:10084000FFF7DCFF204610BDB412060810B50446C1
:10085000FFF7F2FF4FF4027120460AF0B9FB204681
:1008600010BD70470B6803604B6843608B68836002
:100870007047C3680BB19B681847704700207047EA
:1008800070B590F8383105461446F3B90368DB6952
:10089000984704F4706304F00F02B3F5407F04F04E
:1008A000F0030CBF07210821302B0CBF02230123CA
:1008B000012A08D0901E42424241A869BDE870401A
:1008C000006806F08AB80222F7E770BD10B590F80C
:1008D000383104462BB9A369186806F0C1F800281E
:1008E000F9D010BD38B590F838510446A5B98369E0
:1008F0005BB1186848B10368DB689847A3690421B5
:100900001D60A0690AF064FBA5610023C4F82831CA
:10091000C4F82C31C4F8303138BD13B590F83831F3
:1009200004466BBBA369186806F06EF840B309F083
:10093000E9FCA36901220DF10701186803685B69EE
:100940009847D4F83031B3F5807F16D0D4F83031E1
:10095000B3F5807F11D0D4F828319DF807202344C7
:1009600083F82820D4F828310133DBB2C4F82831C9
:10097000D4F830310133C4F8303109F0D9FCD1E773
:1009800002B010BD10B4D0E9013401686210E40770
:100990005DF8044B01EB020044BF8A58D358184756
:1009A00008B590F838313BB1012001F0B7FD064899
:1009B000BDE8084001F01ABB82691AB11368003320
:1009C00018BF0123184608BD702500247FB590F894
:1009D000383104460E46002B36D1856925B90420EE
:1009E0000AF0C2FAA0610560A369186828BB8C20D0
:1009F0000AF0BAFA3346B4F922200546B4F92010B9
:100A000006F0C6FAA3691D60B4F92420531C06D071
:100A1000A0690321B4F92630006806F0C9FAA36979
:100A2000186888B10E4B00226946009403930D4B61
:100A30000292019306F04BF803E0314605F0BAFF4D
:100A4000E2E76846FFF715FF04B070BD8C21284629
:100A50000AF0BEFA18F0FCF96846FFF70AFFF9E75A
:100A6000041306081B09040870B504460D4601F07E
:100A7000BDFA30B12368294620461B6CBDE87040A2
:100A8000184770BDA0F59860EEE7000013B590F828
:100A9000383104468DF807102BB1C9B20B48FFF767
:100AA000E3FF02B010BDA369186805F0D9FF002864
:100AB000F9D0A36901220DF10701186803681B69C9
:100AC0009847013018BF0120EBE700BF70250024D4
:100AD0002DE9F04107468846164601F087FA80B1B5
:100AE0000024A6420ED9351B08EB04013846B5F5A3
:100AF000007F28BF4FF400752A462C4400F018FFF1
:100B0000EFE704462046BDE8F081A0F59860DFE7F6
:100B100070B590F8383105460E4614462BB10F4893
:100B2000FFF7D6FF0446204670BDAB69186805F094
:100B300097FF0028F9D0AB6901211868D0F88830F8
:100B400088301B6B9847AB692246314618680368AA
:100B50001B699847013008BF0024E4E77025002492
:100B600030B50446C3B001F099F90546D4F8D8353C
:100B7000C3F58073984203DDD4F8D855C5F5807568
:100B80002A4601AB02A9204600F0C9FF019902AB39
:100B900000226D1A1D44D4F8D835B3F5807F19D0E2
:100BA0008A4217D0D4F8D835B3F5807F10D0D4F866
:100BB000D035A85C234483F8D004D4F8D035013371
:100BC000DBB2C4F8D035D4F8D8350133C4F8D83501
:100BD0000132E0E743B030BD38B5044600F026FBF3
:100BE0002046FFF7BDFFD4F8D855204600F026FB7D
:100BF000284638BDA0F59860EEE7000010B590F8E3
:100C0000383104462BB10648FFF7E6FF044620467C
:100C100010BD09F077FBD4F8304109F089FBF6E705
:100C20007025002438B5044600F000FB2046FFF78D
:100C300097FFD4F8D8354BB1D4F8D435234493F882
:100C4000D054204600F0FAFA284638BD4FF0FF3560
:100C5000F7E7A0F59860E5E710B590F8383104465D
:100C60002BB10B48FFF7DEFF0446204610BD09F00C
:100C700049FBD4F830313BB1D4F82C01044494F84A
:100C8000284009F055FBF0E74FF0FF34F9E700BFCB
:100C90007025002438B5044600F0C8FA2046FFF756
:100CA0005FFFD4F8D835A3B1D4F8D435234493F8F2
:100CB000D054D4F8D4350133DBB2C4F8D435D4F8E9
:100CC000D835013BC4F8D835204600F0B7FA28469D
:100CD00038BD4FF0FF35F7E7A0F59860DAE7000080
:100CE00010B590F8383104462BB11148FFF7D2FF08
:100CF0000446204610BD09F005FBD4F830319BB105
:100D0000D4F82C31234493F82800D4F82C31013343
:100D1000DBB2C4F82C31D4F83031013BC4F83031A7
:100D2000044609F005FBE4E74FF0FF34F9E700BFA4
:100D30007025002408B54FF4807200211BF080F963
:100D40000022C0F80021C0F80421C0F8082108BD25
:100D50002DE9F84300242D4D4FF47A782C4F2026AE
:100D600005F128002F60EC61C5E90148C5E905647B
:100D7000FFF7E0FF01230E2085F8383101F096FBE4
:100D8000244D81460D2001F091FBA5F820904FF6EF
:100D9000FF79688405F128002F60EC61A5F82490A4
:100DA000A5F82690C5E90148C5E90564FFF7C2FF2B
:100DB00085F838410F23184D2B84562305F1280060
:100DC0002F606B845823EC61AB845923C5E901483B
:100DD000EB84C5E90564FFF7ADFF85F8384198233A
:100DE0000E4D2B84992305F128002F60EC616B8454
:100DF000A5F82490A5F82690C5E90148C5E9056441
:100E0000FFF798FF85F83841BDE8F883A01E00245D
:100E100018130608EC1A0024281C0024641D002462
:100E2000002070477047704710B5D0F88C452CB142
:100E3000236820465B689847A468F8E710BD38B57A
:100E40000D46D0F88C4534B12368204629469B686E
:100E50009847A468F7E738BD00487047D8130608DC
:100E6000054B10B50446036007F09BFB204607F0D6
:100E7000B1FB204610BD00BF5813060810B504464C
:100E8000FFF7EEFF4FF4B26120460AF0A1F82046CA
:100E900010BDF7B5002305460E46D0F88C45A4B129
:100EA000236831460DF103022046DF6801ABB847E5
:100EB0009DF803100346042905D0019A284606F040
:100EC000CDFD03B0F0BDA468E9E7019A9DF80310D9
:100ED000F4E770B505460E4622B10021BDE870402A
:100EE00006F0C8BBD0F88C455CB1236800223146BF
:100EF00020461B69984710B101212846EEE7A468F7
:100F0000F2E72146F9E770B50E460546D0F88C4564
:100F100000213CB12368314620465B699847A468AC
:100F20000146F6E72846BDE8704006F097BCF8B5E4
:100F300005460E461746D0F88C453CB1236820463E
:100F40003A4631469B699847A468F6E7284601214E
:100F5000BDE8F84006F0E0BC70B5002186B004465C
:100F600006F078FF00234FF48975A188EF26ADF8CD
:100F700006302389ADF8045002258DF810301B0A85
:100F8000E2888DF8113040F201238DF80750ADF85A
:100F9000123040F203138DF809500125ADF81430DA
:100FA00004F10A038DF8086005AE8DF80A501C465E
:100FB0008DF80C1001AD090A8DF80E20120A8DF87B
:100FC0000B008DF80D108DF80F202A46083303CA48
:100FD000B24243F8080C43F8041C1546F5D11288B8
:100FE00020461A8006B070BDF8B5002406460D46AE
:100FF000274630461BF004FDA04207D9335D05F8B3
:10100000143005EB440301345F70F2E7400000F058
:10101000FE00F8BD38B50446D0F88C5535B12B68C4
:1010200028461B6A984710B9AD68F7E7284640F292
:10103000023304F24A51A4F84835FFF7D5FF94F87B
:101040004835184484F8480504F5A96038BD000007
:1010500040F2023300F20A5110B50446A0F80835F8
:101060000548FFF7C1FF94F80835184484F80805CF
:1010700004F5A16010BD00BF4413060840F202331E
:1010800010B50446A0F8C83400F2CA40FFF786FB4A
:1010900094F8C834184484F8C80404F5996010BD65
:1010A0002DE9FF4100231D4A044600F54E788DF8D6
:1010B0000A30092590F888350192FA228DF8083017
:1010C00001238DF80C208DF80930C0238DF80B30EA
:1010D00001AB03CBC4F83803C8F8041088F8082023
:1010E000D4F88C658EB13368002130461B68984770
:1010F000478805F54E7300F10901093FE0183A46AB
:101100003D441AF09FFEB668ECE784F83A53404637
:101110002D1284F83B5304B0BDE8F0810902FFFFB3
:1011200073B504460D46164614F02CFE4FF480733A
:1011300001462A4620460093334606F051FE024BF4
:101140002046236002B070BD5813060810B5D0F8D1
:101150008C350446A3B9C0F88C1594F88835084638
:101160004A790B7194F88835134484F888350B68F4
:101170005B6A9847238918442081012010BD1346DB
:101180009A68002AFBD19960E7E71FB5044606F08C
:1011900021FE0146684605F0C7FF4021684606F07B
:1011A00035F8D4F88C4534B1236869462046DB69AC
:1011B0009847A468F7E7684605F0BDFF04B010BD86
:1011C000684605F0B8FF17F043FE10B50446FFF778
:1011D000DCFF2046BDE8104006F06DBD0F4808B5A5
:1011E0000378BFF35B8FDB0711D409F07BFC70B190
:1011F00040F25B2242F241310948FFF791FF074874
:1012000009F092FC074A0849054809F05BFC0448CC
:1012100008BD024809F090FE17F01AFEDC1F0024FA
:10122000E01F002400000024610E040810B5FFF741
:10123000D5FF0368BDE810405B6F184710B5FFF796
:10124000CDFF0368BDE810409B6F184710B5FFF74E
:10125000C5FF0368BDE81040DB6F184706F0EAB829
:1012600006F0FEB806F0D6B8704770477047436A7C
:1012700093F878007047D0F8A404704701207047B5
:1012800000487047441506082DE9F04794B004461D
:101290000F464B22002101A81AF0D2FE2679D4F87D
:1012A000A434751C94F80E90002B94F80C80EDB2C9
:1012B00094F80DE014BF05200020002F40F093802B
:1012C00040F2092309218DF81D0042F20540ADF8D6
:1012D00004304FF481738DF815100121ADF80830FA
:1012E0008023ADF81E0010208DF80B3032234FF014
:1012F000040A24278DF80C3008234FF0030C4B22EE
:101300008DF80D300B238DF819101D348DF80E302B
:1013100040F202238DF81C10ADF8103002238DF836
:10132000210005208DF822108DF825108DF827104A
:1013300006218DF806208DF80F608DF812308DF89B
:1013400017608DF81A308DF81B308DF823008DF85A
:1013500026C08DF82A308DF82B108DF82C008DF8D2
:1013600016A08DF824708DF828A08DF829708DF8BE
:101370002D708DF82E1007218DF82F6041F2020696
:101380008DF831108DF8411040F207518DF8305032
:10139000ADF8366040F209468DF83A5040F6022525
:1013A0008DF832008DF842002046ADF848100DEB64
:1013B0000A018DF833908DF834C0ADF83860ADF87F
:1013C0003C508DF843808DF844308DF846308DF8D0
:1013D0004AE08DF84B308DF84D301AF033FD204641
:1013E00014B0BDE8F0870020FAE700000A4B10B502
:1013F00004460360FFF7F2FE07F0D3F804F524700B
:1014000005F09EFF04F17C0005F09AFF04F17000E6
:1014100005F096FF204610BD0415060810B50446D9
:10142000FFF7E4FF4FF49561204609F0D1FD204617
:1014300010BDFFF70BBF0000034B10B5044603605F
:1014400005F0FAFD204610BD2014060810B504462C
:10145000FFF7F2FF2821204609F0BAFD204610BD13
:10146000034B10B50446036005F0E6FD204610BDB1
:10147000F013060810B50446FFF7F2FF34212046AA
:1014800009F0A6FD204610BD034B10B504460360CD
:1014900005F0D2FD204610BD0814060810B504461C
:1014A000FFF7F2FF3821204609F092FD204610BDDB
:1014B00038B51E4B0D4604464FF400721968C0F84B
:1014C0000F1099889B79A0F81310022143752846C4
:1014D00005F092FE4FF4007220730221284605F0B9
:1014E00090FE4FF4007260730321284605F084FEDD
:1014F000A073284605F020FE20B9AF220C490D4804
:1015000008F008FE04F185020023C4F8882204F2E2
:10151000992284F8783084F88430C4F88C3284F8C6
:101520009832C4F89C24C4F8A03438BD3C14060892
:10153000DF140608EA1406082DE9F34104460E46B6
:101540001546FFF783FEF28823799A4237D1002DA2
:1015500035D17778012F2ED1F378202B27D13289FE
:10156000072A24D104F10F0804F116054046294644
:101570001AF036FCD0B1D4F81630C4F80F30638BB3
:10158000207CE17BA4F8133001EB0021E57C607C3A
:10159000237F01EB00410095A07C2568637501EB7A
:1015A0000061237D2046627D6D6BA8473D46F37840
:1015B000212B08BF0125284602B0BDE8F081002597
:1015C000F9E710B50446FFF741FEFFF707FE217B60
:1015D00006F084FE04F1850304F17C00C4F888322F
:1015E0000023C4F88C3284F8843005F05EFE94F851
:1015F00084302BB923682046DB6BBDE810401847C8
:1016000010BD000070B50446FFF720FED4F8A054CA
:101610002DB140F2DD120F490F4808F07BFD04F2B6
:101620009923C4F89C34FFF7D9FD617B06F0B4FD23
:1016300084F89852C4F8A00404F5247005F035FE2F
:1016400094F898322BB9236820469B6BBDE8704014
:10165000184770BDDF1406084814060810B4D0E916
:10166000013401686210E4075DF8044B01EB0200ED
:1016700044BF8A58D358184770B586B00546FFF75F
:10168000E5FD02ACFFF7AAFD0023A97B00944FF40F
:1016900000720593032306F027FB2046214EFFF737
:1016A000E8F8FFF79BFD204A297B022303920022E2
:1016B000009404924FF400720596029506F014FB14
:1016C0002046FFF7D6F8FFF789FD184B697B4FF4EA
:1016D000007203930023009404930223059602955D
:1016E00006F002FB0CE02046FFF7C3F817F0B0FB52
:1016F0002046FFF7BEF8F9E72046FFF7BAF8F5E70E
:101700002046FFF7B6F8FFF769FD4FF40073D5F8F0
:101710009C24697B06F0E2FC012085F8980206B063
:1017200070BD00BF30140608C31504080516040870
:1017300002232DE9F04143710023044605468360EE
:101740009046144B04F17C0645F8703B284605F0A2
:101750009FFD304605F09CFD04F52477384605F0E2
:1017600097FDC4F8A484FFF739FD2146FFF7EEFC8E
:101770000CE0384605F0E4FD304605F0E1FD284672
:1017800005F0DEFD17F064FBF6E7F8E72046BDE85C
:10179000F08100BF0415060870B504460D46FFF73A
:1017A00055FD84F87850002D3ED194F8843033B143
:1017B000FFF714FD217B06F069FB84F8845004F1E7
:1017C000850304F17C0600253046C4F88832C4F84D
:1017D0008C5205F06AFD304605F060FD28B94FF4E3
:1017E000A2721449144808F095FC94F8983233B169
:1017F000FFF7F4FC217B06F049FB84F8985204F2D1
:10180000992304F52475C4F89C3400232846C4F8B1
:10181000A03405F04AFD284605F040FD20B94FF4FC
:10182000A77204490548DEE704F17000BDE8704086
:1018300005F03BBDDF1406085614060867140608B9
:1018400010B50446FFF702FD00212046BDE8104018
:10185000FFF7A2BF38B50D460446FFF7F7FC042D8D
:1018600005D020460021BDE83840FFF795BF38BDC0
:10187000F8B5164604460D461F46FFF7E7FC04235D
:10188000EA88337023799A4225D16978012922D1D7
:10189000EA78212A08D0222A0BD0202A4FF0000013
:1018A0001BD13070163401E00F34317007203C60DA
:1018B000F8BDAB88204613F0010308BF1946FFF7B7
:1018C0006BFFAB8803F00103E366AB8803F0020310
:1018D000A366022333700020EAE703233370E7E7AF
:1018E00010B58AB00446FFF7A1FC684605F098FBE6
:1018F0000D4B694604F170000093099405F0EDFC6E
:101900002046FFF79BFC094B002168461A6805F04A
:10191000D1FB6846FFF790FD0AB010BD6846FFF79F
:101920008BFD17F095FA00BF201406084414060832
:1019300070B58EB004460E461546FFF777FC01A839
:1019400005F06EFB114B01A904F17C00019300230B
:101950000C958DF83430CDE90A4605F0BEFC2046E2
:10196000FFF76CFC0A4B002101A81A6805F0A2FBE6
:1019700004E001A8FFF774FD17F06AFA9DF83440FF
:1019800001A8FFF76DFD20460EB070BDF0130608EC
:101990004414060810B50446FFF758FC94F8843048
:1019A0007BB9D4F88C3263B1FFF718FCD4F88C32D1
:1019B00004F18502217B06F02FFC10B1012384F88D
:1019C000843010BD2DE9F8431E46044689469046F2
:1019D0009DF82070FFF72AFC0023336094F87830DC
:1019E000E3B194F88430CBB9D4F88C52C5F50075C6
:1019F000454528BF4546B8F1000F05D02A4649465F
:101A0000D4F888021AF01EFAD4F88C322B44C4F8A9
:101A10008C32356017B12046FFF7BCFF2046BDE889
:101A2000F843FFF70BBCF0B50446406A85B00126C9
:101A300090F878502DB984F830503546284605B0D6
:101A4000F0BD04AB0027D4E90A1243F8047D0096E8
:101A5000FFF7B8FF0399E36AA26A5B1A0A44E362DC
:101A6000A26213B984F83060E8E7606A3D46FFF788
:101A700091FFE3E72DE9F0431C4691B00546894606
:101A80009046FFF7D3FB002C4FF0000602A806BFDC
:101A900001AC01270027266005F0C2FA134B02A90A
:101AA00005F5247002938DF83C708DF83D60CDE90A
:101AB0000B59CDE90D8405F010FC2846FFF7BEFB5D
:101AC0000B4B314602A81A6805F0F4FA04E002A8AC
:101AD000FFF7DAFC17F0BCF99DF83D4002A8FFF7CC
:101AE000D3FC204611B0BDE8F08300BF08140608FF
:101AF0004414060810B5D0F8A034044673B990F821
:101B000098325BB9FFF76AFB4FF4007304F2992235
:101B1000617B06F0E3FA012384F8983210BD70B5BA
:101B200004461E4600230846336094F87830EBB133
:101B300094F89832D3B9D4F8A054D4F89C149542B0
:101B400028BF15462A461AF07DF93560D4F89C3432
:101B5000D4F8A0242B44551BC4F89C34C4F8A054DA
:101B600025B92046BDE87040FFF7C4BF70BD37B54A
:101B70000446406A90F878502DB984F83550012514
:101B8000284603B030BD02AB002243F8042DD4E94F
:101B90000A12FFF7C4FF0199A26A0A44A262226BEB
:101BA00013680B4413600199E36A5B1A94F83410CC
:101BB000E36209B9126802B91BB9012384F8353010
:101BC000DEE7606A0025FFF795FFD9E76FF01500A3
:101BD000704700290CBF6FF01800002070470120EB
:101BE00070476FF0150070476FF0150070471120B7
:101BF000704770477047704703689B6C1847A0F5A3
:101C00009860F9E770477047704770470368184756
:101C100010B50446012000F081FC94F8780010BD56
:101C2000A0F59860F4E7000038B54FF0FF320123CB
:101C3000FF210B4809F06AFB0A4D00F051FC0446F5
:101C400095F878301BB1012000F068FCF8E700F04F
:101C500047FC001BC728F6D9BDE83840FEF7B4BDE5
:101C6000A82B00247025002407B502AB012243F8FD
:101C7000041D1946FFF75CFE18B1019803B05DF82A
:101C800004FB4FF0FF30F9E7A0F59560FFF7ECBFDC
:101C900007B5002302A9012201F8013DFFF7EAFE82
:101CA00020B19DF8070003B05DF804FB4FF0FF3052
:101CB000F9E7A0F59560FFF7EBBF2DE9F84304467F
:101CC000884617461E46089DFFF7C0FAD4F8F095DF
:101CD000B9F1000F04D02B46324639464046C8477A
:101CE000C4F8E085C4F8E475C4F8E865C4F8EC55B8
:101CF000BDE8F88370B506460025FFF7A7FA06F29F
:101D0000F454D6F83436AB4208D92046103454F88F
:101D1000043C1BB11B6801359847F2E770BD000019
:101D2000B0F5966F03D10121014809F0D1BA70478F
:101D3000A82B002410B4D0E9013401686210E40734
:101D40005DF8044B01EB020044BF8A58D358184792
:101D5000114B03F1780270B503600446C0F8A82463
:101D600000F2F45603F1D80200F23465E833C0F80B
:101D7000AC24C0F8C034AE4204D0103D2846FEF773
:101D800078FDF8E704F5956007F046FE2046FFF77A
:101D90002DFB204670BD00BF84150608A0F5956098
:101DA000FFF7D6BFA0F2AC40FFF7D2BF10B5044694
:101DB000FFF7CEFF4FF4C761204609F009F920462E
:101DC00010BDA0F2AC40FFF7F1BFA0F59560FFF7A2
:101DD000EDBF0000F7B51E4604460F46154613F04A
:101DE000D1FFBDF8243001462A4601932046BDF8B4
:101DF00020300093334604F59566FFF799FC0021E7
:101E0000304607F0DFFD4FF47A73002504F59A6041
:101E1000C4F8C8342946204BC4F8C45403F17802EE
:101E20002360C4F8A82403F1D802E833C4F8AC2432
:101E30004FF48072C4F8C0341AF002F9C4F8D055D7
:101E4000C4F80056C4F8D455C4F81056C4F8D85590
:101E5000C4F82056C4F83056C4F83456C4F8F055C7
:101E6000BFB12046FFF73CFD13E004F2346504F2F5
:101E7000F457BD4204D0103D2846FEF7FAFCF8E7BF
:101E8000304607F0C9FD2046FFF7B0FA16F0E0FF34
:101E9000F9E7204603B0F0BD8415060838B50546BD
:101EA000FFF7C4F995F898325BB9D5F8A044B4F5BA
:101EB000007F28BF4FF400742846FFF7BFF9204683
:101EC00038BD0024F8E70000F0B587B00446FFF7FE
:101ED000ADF93D4B2046C4F8F035FFF7AFF93B4B69
:101EE0002046029405933A4B039300230493FFF793
:101EF0009DF9D4F83456032D03D92046FFF79EF9F7
:101F000015E004EB05166B1C06F2F456C4F83436E3
:101F10003046FEF7AEFC059B04EB0515C5F8003610
:101F2000002BEAD05B6802A930469847E5E702A893
:101F3000FEF79FFCBC2009F017F8264B002100F1AA
:101F40004006054603600161304609F083FA05F159
:101F50005407384609F01CFA1F4B4FF480721821C1
:101F600028460093002309F00DFB1C4B02A9C4F87E
:101F7000DC55284605931A4B02930023CDE9033321
:101F800009F00CFB10E0384609F042FA304609F03F
:101F90008AFA281DFEF76DFCBC21284609F018F8C6
:101FA00016F056FFF2E7F4E702A8FEF762FC2046BF
:101FB000FEF7D6FD07B0F0BD02A8FEF75AFCEFE72A
:101FC00002A8FEF756FCEBE7211D04085C15060885
:101FD000610B04083C3006087415060868150608ED
:101FE000291C0408A0F59860FFF76EBF90F87800F0
:101FF0007047000037B50F4C0F4D204609F058F9D7
:102000002A460E49204608F05DFD42F212030122E5
:102010000B4CCDE9003200224FF4F8532046114614
:10202000FFF7D8FE2A460749204603B0BDE83040F6
:1020300008F048BDA82B002400000024D7B20408F3
:1020400070250024511D040808B518F0A9FB2DE9DE
:10205000F04F027D85B005460E46012A40F08E8085
:1020600000214FF0FF3B04460B465F4694F804C046
:1020700048B2BCF1000F73D194F805C0BCF1000F59
:102080006ED1B7F1FF3F17BF0133012338465BB272
:10209000934201DD1A4683460131023408295DD19D
:1020A000002402EB0B03A1460293CB4502DC029B0A
:1020B0004B4558DC95F8058095F804A04FEA2817A1
:1020C00008F00F080AF00F035FEA2A1AFAB2019229
:1020D0006FD05FFA8AF1BAF1090F30460393D4BF8B
:1020E0003031573100F0B3F8039B0444092B3046DC
:1020F000039394BF03F1300103F1570100F0A7F8F7
:102100000444BAF1000F02D1039B03B94FB1092F68
:10211000019F3046D4BF30375737F9B200F097F8F7
:102120000444B8F1090F304694BF08F1300108F1BA
:10213000570100F08CF8B9F1070F044404D03A219C
:10214000304600F084F8044409F101090235B9F180
:10215000080FAAD1204605B0BDE8F08F074685E7F5
:102160004FF0FF3098E7CB45EED1BBF1000FE6D141
:102170003A21304600F06BF80444E0E700F1100724
:1021800000F11309002417F8011B0A22304600F061
:10219000BDF880462E21304600F059F8B94540443C
:1021A0000444F0D10A22E97C304600F0AFF8044440
:1021B000D0E7002B9AD1A9E7054B102210B50446B1
:1021C000036001750021043019F03AFF204610BD6C
:1021D000A016060870B5074D8374056000259DF8AC
:1021E0001030057545608560C56001744274C37424
:1021F00070BD00BFA016060807B501210648FFF70D
:10220000DBFF002305481A4619460093FFF7E2FF5B
:1022100003B05DF804FB00BFBC2B0024D42B0024CA
:1022200070B5044608460D461AF0EAFB23680246DC
:10223000294620465B68BDE87040184709B1FFF7A2
:10224000EFBF0846704708B5FFF7F8FF08BD036801
:102250001B6818470149FFF7E3BF00BF0E5506088A
:1022600070B58AB00D460023012A98BF0A220AA938
:1022700001F8043DB5FBF2F402FB14562546F3B217
:10228000092E94BF30333733DBB201F8013D002C07
:10229000F0D1FFF7D3FF0AB070BD2DE9F04107463A
:1022A0000E4615462AB90368C9B21B68BDE8F0415D
:1022B00018470A2A05D1002905DBBDE8F041FFF7E0
:1022C000CFBFD2B2F9E72D21FFF7C1FF04462A465E
:1022D00071423846FFF7C4FF2044BDE8F08138B5AD
:1022E0000546FFF7DAFF04462846FFF7B3FF204410
:1022F00038BD10B42AB90368C9B25DF8044B1B6835
:102300001847D2B25DF8044BFFF7AABFFFF7F1BF41
:1023100070B52DED068B0A9D064643EC182BB4EEE6
:10232000488B002DB8BF0225F1EE10FA06D73C49C4
:10233000BDEC068BBDE87040FFF772BFB0EEC87B06
:102340009FED316BB4EE467BF1EE10FA01DD3549BD
:10235000EEE79FED2F7BB4EEC78BF1EE10FA02DDB6
:1023600031493046E4E79FED2C7BB4EEC78BF1EEAC
:1023700010FAF5D4B5EEC08BF1EE10FA11D52D217F
:10238000B1EE488BFFF763FF0446B6EE007B0023F7
:10239000B2EE046BDAB20133AA4204DA87EE067BAE
:1023A000F8E70024F1E738EE078B0A223046BCEE4E
:1023B000C89B19EE101AFFF753FF0444EDB1B8EEB5
:1023C000499B1A493046B2EE04ABFFF729FF04449B
:1023D00038EE498B15F1FF350FD328EE0A8B0A2210
:1023E0003046BCEEC89B19EE101AFFF739FFB8EE65
:1023F000499B044438EE498BECE7BDEC068B204644
:1024000070BD00BFAFF30080FFFFFFFFFFFFEF7F56
:10241000000000E0FFFFEF41000000E0FFFFEFC120
:10242000A4160608A8160608AC1606087C2206089C
:1024300037B5069905460091FFF76AFF044628461E
:10244000FFF708FF204403B030BD000010B500F0D6
:1024500067F80A4CFEF758F9FEF7C0FEFEF7B5FE26
:102460004FF4E1310648FFF72FFDFDF7A7FFFDF719
:10247000B3FF002CFBD0AFF30080F8E700000000B2
:102480007025002470B505460024074EFEF7C0F8FD
:10249000E3B2984206D918461B010134F35EAB4201
:1024A000F4D170BDFF20FCE74800002410B50446BD
:1024B000FEF7AEF884423BBF2401024B4FF0FF30E1
:1024C000185F10BD4800002410B5044604F00DFC50
:1024D000204610BD10B5044604F007FC204610BD90
:1024E00007B50749684604F03DFC4FF47A720023B3
:1024F000DDE9000116F0FEFF03B05DF804FB00BF4C
:10250000F02B002407B50449684604F02BFC009822
:1025100003B05DF804FB00BF082C002408F0CABF1C
:1025200008B5044804F0EBFB0348BDE8084004F09C
:10253000E6BB00BF082C0024F02B002438B50A4C61
:102540000A4D204604F04BFC2046094C2A46094916
:1025500008F0B8FA204604F04DFC2A462046064909
:10256000BDE8384008F0AEBA082C00240000002472
:10257000F02B0024D5240408C924040870B50446AF
:10258000FEF746F8844202D34FF0FF3070BDFEF7ED
:102590003FF88442F8D20E2C1B4B13D803EB0413E4
:1025A000B3F9F060721CEFD0184B03EBC4035D6805
:1025B000D5B9702008F0D8FC154A3146054603F01D
:1025C00015FE09E022019E5E731CDDD00F4B03EB6C
:1025D000C40353F8745CEBE70C4B0E2C03EBC40400
:1025E00094BF656044F8745C284603F0D9FD094B3C
:1025F0001B68C3F110031841C8E77021284608F092
:10260000E7FC16F025FC00BF480000240800002469
:102610000000C07F680C002470B504460D461646C5
:1026200000211C2219F00CFD20463246294606F0F6
:10263000EBFB204670BD00002DE9F04107011F4D66
:1026400004460E46EA19D06810B11C2108F0C0FCFF
:102650002046FFF72BFF80461C2008F085FC04462F
:1026600000211C2219F0ECFC4146204606F0C9FB73
:10267000EB19012EDC6010D006D3022E12D02046BA
:1026800003F0DFFD022103E0204603F0DAFD002124
:102690002046BDE8F04103F0E1BD2046BDE8F04131
:1026A00003F0C2BD204603F0CCFD0121F0E71C2160
:1026B000204608F08DFC16F0CBFB00BF480000243C
:1026C00030B589B004460D46FFF7DCFEC0B2FF28E6
:1026D00004D02946FFF7B0FF09B030BD012D14D05A
:1026E0000AD3022D1CD00222214601A8FFF794FF35
:1026F00001A806F025FBEFE70022214601A8FFF71D
:102700008BFF01A806F01CFBE6E71C22002101A8B4
:1027100019F096FC0022214601A806F077FBDBE7C2
:102720000122214601A8FFF777FF01A806F008FB68
:10273000D2E700002DE9F34106460F46FDF768FF9A
:1027400086422AD21B4D4FEA061805EB0802D468D0
:10275000ACB93046FFF7AAFE06461C2008F004FC80
:1027600004461C22002119F06BFC00970023012273
:102770003146204606F063FB05EB0803DC600E4B98
:102780000E491A46D3F894008842FBD123683FB122
:10279000A1680B604FF44073536102B0BDE8F08153
:1027A000E1681B04F5E71C21204608F011FC16F037
:1027B0004FFB00BF48000024006402580003008063
:1027C00030B589B005460C46FFF75CFEC0B2FF2865
:1027D00004D02146FFF7AEFF09B030BD1C22002116
:1027E00001A819F02DFC294601A806F025FB094B8C
:1027F00009491A46D3F894008842FBD1019B2CB1B9
:1028000003990B604FF440735361E5E71B0404998F
:10281000F7E700BF00640258000300801EF0040FB9
:102820000CBFEFF30880EFF30980816911F8021CF7
:10283000002932D101B590E80F10E047BDE8005003
:102840008CE80300244B93E80600914208BF7047D0
:102850001A6041B91EF0100F10D1204B186820F0FB
:10286000010018600AE02CE9F00F1EF0100F08BFFD
:102870002CED108A81F822E0C1F838C0906B92F8F4
:10288000221061F0FF0E1EF0100F08BFB0EC108A8E
:10289000B0E8F00F80F309887047114A1368994235
:1028A000FAD801B552F821C00FC8E047BDE8005082
:1028B000CCF80000704701B501F0D4FBBDE8014041
:1028C000EFF3098CBEE701B501F090FBBDE80140D4
:1028D000EFF3098CB6E70000800C002434EF00E031
:1028E00078170608014608B530B96FF0030000F00C
:1028F0001DFA6FF0030008BD132001F091FF30B9FD
:102900004FF0FF3000F012FA4FF0FF30F3E70020F5
:10291000F1E7000008B5EFF305832BB9EFF310835F
:1029200013B9EFF3118333B16FF0050000F0FEF936
:102930006FF0050008BDDFF808C000DFFAE700BF50
:10294000E5280408EFF310832BB9EFF3118000386A
:1029500018BF012070470120704710B520B10378DF
:10296000F32B01D1002906DA6FF0030102F02CFAF3
:102970006FF0030010BD00F10C0353E8000F20EAD4
:10298000010243E8002404B1F7E7F3E738B5054650
:10299000A0B1846802686CB114F0030302D1C1686D
:1029A0000F2926D800246FF00801002002F00CFA4D
:1029B000204638BDC368002BF4D11546104BD3F820
:1029C000900078B100F087FC0446A0B10123F32207
:1029D000A3700023656022700A4AC4E90233084BE1
:1029E0005A66E5E701221021D3F8800000F0FAFBD7
:1029F000EAE71546EBE76FF0040102F0E5F9D7E7E7
:102A00006C0C0024712A0408930710B502F001042D
:102A100022D400F10C0384B153E8000F00EA010254
:102A20008A4203D0BFF32F8F002005E020EA010285
:102A300043E8002404B1EFE710BD53E8000F08425B
:102A400003D1BFF32F8F002005E020EA010243E805
:102A5000002404B1F1E7EFE7C06801EA00031CB10C
:102A6000994218BF0020E7E7002B08BF0020E3E7EA
:102A7000F8B50546846804B9F8BD94F823202846C3
:102A8000616AA768FFF7C0FF064638B1204601F02B
:102A900062FC00223146204601F0DCFD3C46EAE7BC
:102AA000F8B50D4617461E46044620B10378F32BB1
:102AB00001D1002907DA20466FF0030102F084F902
:102AC0006FF00300F8BDFFF79FFF0028FAD186B131
:102AD0003146432001F0A4FE40B1074B20465E6919
:102AE000314601F01DFC756286F823706FF001001D
:102AF000E8E76FF00200E5E76C0C002470B50546CE
:102B000010B10378F32B07D028466FF0030102F0D1
:102B10005BF96FF0030070BD836863B1284601F074
:102B200011FC00226FF0020101F094FDA86800285A
:102B3000F4D101F075FCAB78002613F001032E7080
:102B40000FD0094B2946D3F8904024B1204600F01D
:102B5000DCFB3046DFE7D3F8800000F078FB20464E
:102B6000D9E71846D7E700BF6C0C00242DE9F041E7
:102B7000064620B10378F32B01D1002909DA6FF062
:102B800003056FF00301304602F01EF92846BDE848
:102B9000F08100F10C0353E8002F42EA010543E8FD
:102BA000005000B1F7E7B4681CB9204601F038FCCA
:102BB000ECE794F823203046616AD4F80880FFF7E8
:102BC00023FF074678B194F823309B0756BF656A08
:102BD000054620EA0505204601F0BDFB00223946E6
:102BE000204601F037FD4446DEE70000024608B506
:102BF000EFF3058333B100206FF0050102F0E4F834
:102C0000002008BDFFF79EFE0028F4D11046DFF833
:102C100008C000DFF5E700BF8D290408024638B57B
:102C2000EFF305834BB192B96FF003046FF003012A
:102C3000104602F0C9F8204638BDFFF783FE002891
:102C4000F1D11046DFF82CC000DF0446F3E713781B
:102C5000F32BE9D10029E7DB02F10C0353E8000F65
:102C600040EA010443E8004505B1F7E7104601F0EA
:102C700041FAE0E76D2B0408024608B5EFF305833F
:102C800023B11046BDE80840FFF767BEFFF75AFEC4
:102C90000028F6D11046DFF808C000DF08BD00BFED
:102CA0005B29040838B504461D46EFF3058343B19C
:102CB0008CB920466FF0030102F086F86FF0030034
:102CC00038BDFFF73FFE0028F2D120462B46DFF843
:102CD00024C000DFF4E72378F32BEAD1002DE8D1FC
:102CE0000029E6DB2046FFF78FFE002808BF6FF0C3
:102CF0000200E5E7A12A0408024608B5EFF30583C0
:102D00003BB110466FF0050102F05EF86FF0050070
:102D100008BDFFF717FE0028F3D11046DFF804C006
:102D200000DFF5E7FD2A0408704770477047EFF3AE
:102D300010832BB9EFF31180003818BF01207047C2
:102D400001207047064BDA6A3AB1D0695B6C1BB15F
:102D50001B69984228BF184670474FF0FF30F5E7CF
:102D60006C0C0024014BD868704700BF6C0C002429
:102D700008B5094B1A7A022A08D0032A0AD04FF064
:102D8000FF3002F015F84FF0FF3002E00322002080
:102D90001A7208BD0120FCE76C0C002470B5464C8B
:102DA000237A012B00F0858033B14FF0FF3001F022
:102DB000FFFF4FF0FF3070BD404DEB68E3652B8A9D
:102DC000D5E90B61A4F85430AB683046236400F0B9
:102DD000F1F908B1C4F88060D5E90561304600F02A
:102DE000E9F908B9D4F880606667D5E9076130462B
:102DF00000F0E0F908B9D4F88060A667D5E9096168
:102E0000304600F0D7F908B9D4F88060E6676E6BF9
:102E10003EB131683046D6E9022300F03BFAC4F8EF
:102E20008460AE6B3EB131683046D6E9022300F0D3
:102E300031FAC4F88860EE6B3EB131683046D6E9AD
:102E4000022300F027FAC4F88C602E6C3EB1316882
:102E50003046D6E9022300F01DFAC4F890606E6C8B
:102E60003EB131683046D6E9022300F013FAC4F8C7
:102E70009460AE6C3EB131683046D6E9022300F072
:102E800009FAC4F89860EE6C3EB131683046D6E974
:102E9000022300F0FFF9C4F89C602D6D3DB1296854
:102EA0002846D5E9022300F0F5F9C4F8A050012323
:102EB000237200207FE700BF6C0C0024081706086F
:102EC00070B5254D2B7A012B07D06FF006004FF01F
:102ED000FF3401F06DFF204670BD01F005FD10B913
:102EE0004FF0FF30F3E71D4AFF231D4E82F82230DA
:102EF00092F82230D26863F0FF031A49C2F302222B
:102F00007068DB4314BFB3FA83F32023C3F12003BB
:102F1000934298BF531CFE2202FA03F30F4ADBB21E
:102F2000D37701F0A1FF04460028D9D101F0F4FFC6
:102F3000286101F0DDFF0C4801F004FA01F068FAA5
:102F40003368DB074CBF0223032383F31488BFF3EA
:102F50006F8F02232B72BEE76C0C002400ED00E0A3
:102F600008170608C7280408880C002408B50A4B6F
:102F70001A7A023A012A02D840B1012809D04FF04A
:102F8000FF3001F015FF4FF0FF3001E002221A720E
:102F900008BD0322FBE700BF6C0C002410B50F4CEA
:102FA000237A022B13D101F0ABFF01236372BFF32D
:102FB0004F8F0B4A5168C90003D54FF00061516033
:102FC000A37204232372BDE81040FFF7BBBE6FF06D
:102FD000070001F0EDFE002010BD00BF6C0C0024C6
:102FE00000ED00E038B51E4C0546237A042B35D1A0
:102FF000FFF7A8FEE26AA842034694BF00F1FF3340
:103000002B4612B1D069C01AD061626C12B110693E
:10301000C01A1061E06803440544E360E368AB4212
:1030200013D102230020237201F0FAF90023637206
:10303000BFF34F8FA27A22B1A3724FF08052094B97
:103040005A60BDE8384001F053BF0133E36001F03E
:10305000A5F9236D002BE1D09847DFE738BD00BF0D
:103060006C0C002400ED00E0704738B504460D46B6
:10307000FFF75AFE29462046BDE8384001F05ABE07
:1030800008B5FFF7F1FFEFF3058333B16FF00500EB
:1030900001F08EFE6FF0050008BDFFF748FE002826
:1030A000F4D1DFF808C000DFF6E700BF9D2D04086B
:1030B00008B5EFF3058333B16FF0050001F078FE3A
:1030C0006FF0050008BDFFF732FE0028F4D1DFF8ED
:1030D00008C000DFF6E700BFC12E040808B5EFF313
:1030E000058333B16FF0050001F062FE6FF005005B
:1030F00008BDFFF71CFE0028F4D1DFF808C000DF90
:10310000F6E700BF712D0408024608B5EFF305830A
:1031100033B16FF0050001F04BFE6FF0050008BD04
:10312000FFF705FE0028F4D11046DFF808C000DFE5
:10313000F5E700BF6D2F040808B5EFF305832BB149
:103140006FF0050001F034FE002008BDFFF7EFFD31
:103150000028F5D1DFF804C000DFF6E79D2F040852
:10316000024608B5EFF305832BB16FF00500BDE80B
:10317000084001F01DBEFFF7DAFD0028F5D110462A
:10318000DFF804C000DF08BDE52F040808B5EFF341
:10319000058313B1054BD86808BDFFF7C8FD0028AB
:1031A000F8D1DFF80CC000DFF6E700BF6C0C00249C
:1031B000652D040810B598B140EA010313F0070328
:1031C0000ED117290AD90160083910220C18426063
:1031D00084600B5081684A60C3600123184610BDAB
:1031E0000023FBE7F0B580B399B132F003032CD193
:1031F0000F3100F1080521F007072B462D685C68A8
:10320000E91A24F00304091B8F4204D92968002914
:10321000F3D10846F0BD46683A4304683E44466030
:10322000204450F8041C08388E4288BF4660586815
:1032300018B903F108015A60EBE720F003001918F0
:103240001D504A6019600831E3E70021E1E730B51D
:1032500090B1D9B1A1F1080500F108040022AC42F7
:103260000BD151F8043C23F0030443681B1B43605B
:1032700042B941F8042C012030BD236822463BB1FD
:103280001C46ECE751F8083C1360F4E70846F3E706
:103290001846F1E730B5C0B189B1C2B1CBB1002455
:1032A0000160C3604361C0E9014202FB01F41D19E2
:1032B00005611846013904D1A21A99500121084626
:1032C00030BD851805602846F4E70146F7E711464A
:1032D000F5E71946F3E7034610B5A8B100F114026B
:1032E00052E8000F10B9BFF32F8F04E0016842E8E5
:1032F000001404B1F4E738B1043353E8002F511C33
:1033000043E8001404B1F8E710BD30B5F0B1C3686C
:103310008B421BD803698B4218D900F114031A6839
:103320000A60BFF35F8F53E8002F0C689442F6D118
:1033300043E8001505B1F2E7043050E8003F5A1E9B
:1033400040E8002101B1F8E7002030BD6FF0030034
:10335000FBE7EFF310832BB9EFF31180003818BFB0
:103360000120704701207047036B30B5E3B1CD7881
:103370000024DA78AA420FD31A46C1E901248AB19F
:103380009160A4B16160283050E8003F5A1C40E8C9
:10339000002101B1F8E730BD5A681C46002AECD084
:1033A0001346E6E7C162ECE7C1E90133C16201639C
:1033B000E9E7D1E9013223B19A608A681AB1536012
:1033C0007047C262F9E703637047F8B5877804462F
:1033D0008FB3C5680027014605F10C062846FFF7A4
:1033E000E8FF27703046FFF790FFAB68002B48D00E
:1033F0003046FFF770FF0446002842D0284600F010
:10340000A1FF06463A46394601F024F9304600F05D
:10341000F5FF6A6A0646816804F10C0018F012FD97
:10342000F923A7702370F368E37021462846BDE8AE
:10343000F840FFF799BF8568AB68002BF5D05B7843
:10344000832BF2D1284600F07DFF06463A463946E6
:1034500001F000F9304600F0D1FF06466A6A04F137
:103460000C01806818F0EEFCF3680BB1E2781A707A
:103470000023214605F10C002370BDE8F840FFF75A
:1034800044BFF8BD2DE9F0410C4617469846054665
:1034900018B10378FA2B00D141B928466FF0030127
:1034A00001F0A8FC6FF00300BDE8F0818368C3B1B0
:1034B0005B78832B15D100F045FF064601220021E1
:1034C00001F0C8F8304600F099FF06466A6A2146C6
:1034D000806818F0B7FCF0680028E5D0077000207D
:1034E000E2E705F10C00FFF7F6FE064670B1214653
:1034F0006A6A0C30002418F0A5FCF92331462846EE
:103500003370B470F770FFF72FFFE8E7B8F1000FE2
:1035100010D04146932001F083F940B1074B284673
:10352000596900F0FDFEEFF30983C3E902476FF02C
:103530000100B9E76FF00200B6E700BF6C0C002491
:103540002DE9F84F8846074638B131B1B0FA80F31B
:10355000B1FA81F10B441F2B06DC6FF00301002050
:10356000002401F047FC70E008F1030626F0030692
:103570000C3606FB00F9F2B194683CB1A30702D106
:10358000D368332B05D86FF00801E8E7D368002B28
:10359000F9D1D2F800A0D2E904533DB115F0030BE4
:1035A00001D1994554D96FF00901D8E7002BFAD120
:1035B0001CB19B460CE092461546274BD3F8A00061
:1035C000D8B1FFF788FE0446A0B14FF0010B35BB20
:1035D000214B00224946D86FFFF704FE0546C0B9CB
:1035E000BBF1000F06D01C4B2146D3F8A00058B108
:1035F000FFF78BFE6FF00401B1E701223421D3F80D
:103600008000FFF7EFFDDEE7D3F88000FFF71FFE35
:10361000F0E74BF0020B4A46002118F011FDFA23A7
:103620003246394604F10C002370002384F802B0BE
:10363000A360C4F804A0C4E90983C4E90B332B4692
:10364000FFF728FE044B054A1A672046BDE8F88FAD
:10365000002CE4D1B1E700BF6C0C0024CB3304088C
:1036600000F1280310B553E8002F12B9BFF32F8FD4
:1036700004E0511E43E8001404B1F4E70AB9002045
:1036800010BDC06A01230028F9D0821CD2E84F1F68
:10369000C2E8443F04B1F9E711F0FF0FF0D08068B1
:1036A000F1E700002DE9F0410F4615469846044623
:1036B00018B10378FA2B00D141B920466FF003010D
:1036C00001F098FB6FF00300BDE8F081FFF7C8FF41
:1036D000064600283AD001462046FFF76AFE626A95
:1036E00006F10C01384618F0ADFB0DB1F3782B70E4
:1036F000002504F10C07314638463570FFF705FE0A
:10370000A3680BB90020DFE73846FFF7E4FD064663
:103710000028F7D0204600F015FE07462946012272
:1037200000F098FF384600F069FE626A074681683B
:1037300006F10C0018F086FBF923B57031463370A2
:103740002046FB68F370FFF70FFEDBE7B8F1000FD0
:1037500010D04146832001F063F840B1074B20466A
:10376000596900F0DDFDEFF30983C3E902756FF0DD
:103770000100A9E76FF00200A6E700BF6C0C00246F
:1037800008B5064B08219A6ED86EFFF7D9FE044B98
:10379000D864B0FA80F04009404208BD0817060816
:1037A0006C0C00242DE9F04106460F4690461C465D
:1037B000EFF305834BB196B930466FF0030101F08A
:1037C00019FB6FF00300BDE8F081FFF7C2FD002890
:1037D000F1D130462346DFF848C000DFF3E7337805
:1037E000FA2BE9D1002FE7D0002CE5D106F10C002F
:1037F000FFF771FD054680B1726A39460C3018F04A
:1038000021FBF9232846AC702B7085F80380C5E9AD
:10381000017600F06FFC2046D5E76FF00200D2E79A
:1038200085340408F8B504460F4616461D46EFF3E6
:10383000058343B18CB920466FF0030101F0DAFA39
:103840006FF00300F8BDFFF784FD0028F2D1204699
:103850002B46DFF844C000DFF4E72378FA2BEAD1E7
:10386000002FE8D0002DE6D12046FFF7F9FE0546EF
:1038700070B100F10C01626A384618F0E3FA0EB13B
:10388000EB7833702846EC6000F034FC0020D9E778
:103890006FF00200D6E700BFA5360408EFF31083EF
:1038A0002BB9EFF31180003818BF012070470120B9
:1038B0007047000070B5A8B38468D0E900566CB1B9
:1038C00014F0030302D1C2681B2A1AD800246FF037
:1038D0000801002001F07EFA204670BDC368002B6D
:1038E000F4D1124BD3F8940030B901221C21D3F843
:1038F0008000FFF777FC01E0FFF7EDFC044660B1C4
:103900000123F522A3700023E67022706560237600
:10391000C4E90233C4E90433DEE76FF0040101F0C7
:1039200059FAD9E705460646DBE700BF6C0C0024D0
:10393000284B70B55D6904460E4635B96FF0070136
:1039400001F048FA4FF0FF3070BD10B10378F52B4D
:1039500007D020466FF0030101F03CFA6FF003003E
:10396000F2E7037E53B9C0E90353EB6A436103B145
:1039700018610123EC6200202376E5E7C278D107C5
:103980000DD5C168A9420AD1FF2B06D16FF00F01F6
:1039900001F020FA6FF00200D6E70133EBE7002ECA
:1039A000F8D093070AD5E06895F9203090F92020E7
:1039B0009A4203DA80F8203000F0D6FC31465320DA
:1039C00000F02EFF18B12946204600F0A9FC6FF048
:1039D0000100B9E76C0C00242E4B5A6970B50446FF
:1039E00032B96FF0070101F0F5F94FF0FF3070BD0B
:1039F00010B10378F52B07D020466FF0030101F0DA
:103A0000E9F96FF00300F2E7037E33B96FF00E01BE
:103A100001F0E0F96FF00200E9E7C168914202D0DD
:103A20006FF00D01F4E7013BDBB2037613BB436992
:103A30000BB1016919612169F1B14B6192F9213032
:103A4000D56ADDB982F82030A36883B1204600F042
:103A500079FC06462A46294600F0FCFDF36AC4E9D3
:103A60000365636103B11C610123F46223760020C6
:103A700000F0D6FC0020BAE7D362DFE7E9788907D7
:103A800006D5A96821B191F920108B42B8BF0B4629
:103A90006D69D6E76C0C002470B5044610B103784C
:103AA000F52B07D020466FF0030101F093F96FF07A
:103AB000030070BD037EBBB16369C0680BB12269AE
:103AC0001A61226902B3536190F92120C36AEBB9EC
:103AD00090F92030934203D080F8202000F044FC7D
:103AE000A068F8B900F09CFCA078002610F0010056
:103AF0002670DED0134B2146D3F89450DDB1284612
:103B0000FFF703FC3046D4E7C362DDE7D9788907C5
:103B100006D5996821B191F920108A42B8BF0A46AA
:103B20005B69D4E7204600F00DFC00226FF0020133
:103B300000F090FDD4E7D3F88000FFF788FB28461B
:103B4000B7E700BF6C0C00242DE9F04104460026C5
:103B500001270CB9BDE8F081E378D4F814801B0785
:103B600012D5A36826767BB1204600F0EBFB00223D
:103B70000546114600F06EFDEB6AC4E90356636129
:103B800003B11C61EC6227764446E2E710B4C378C7
:103B90009B071DD5C06890F92120C36ADC78A40773
:103BA00009D59C688C4208BF8C6824B194F92040E8
:103BB000A242B8BF22465B69002BEFD190F92030BA
:103BC000934205D080F820205DF8044B00F0CCBB78
:103BD0005DF8044B70470000024608B5EFF305831B
:103BE00033B100206FF0050101F0F4F8002008BDAA
:103BF000FFF754FE0028F4D11046DFF808C000DFBC
:103C0000F5E700BFB5380408024608B5EFF30583B1
:103C10003BB110466FF0050101F0DCF86FF00500D4
:103C200008BDFFF73BFE0028F3D11046DFF804C0C3
:103C300000DFF5E731390408024608B5EFF30583E4
:103C40003BB110466FF0050101F0C4F86FF00500BC
:103C500008BDFFF723FE0028F3D11046DFF804C0AB
:103C600000DFF5E7D9390408024608B5EFF305830C
:103C70003BB110466FF0050101F0ACF86FF00500A4
:103C800008BDFFF70BFE0028F3D11046DFF804C093
:103C900000DFF5E7993A0408EFF310832BB9EFF34F
:103CA0001180003818BF01207047012070470C3088
:103CB000D0E85F3F13B9BFF32F8F04E05A1EC0E86E
:103CC000512F01B1F4E798B2003818BF01207047B6
:103CD00030B500F10C02C189D2E85F3F994202D8A9
:103CE000BFF32F8F04E05C1CC2E8554F05B1F3E72A
:103CF000C0899BB2984294BF0020012030BD0000D3
:103D0000F8B515464FF6FE73421E06460F469A4218
:103D100001D8884207D26FF003010024002001F08F
:103D20005FF82046F8BD7DB1AC682A6844B114F054
:103D3000030302D1E9680F2922D86FF00801ECE7EC
:103D4000EB68002BF9D11546114BD3F8980080B1E0
:103D5000FFF7C1FA0446A8B10123F622A37000239D
:103D600065602270A3600B4A094BA781E6819A66C1
:103D7000D7E701221021D3F88000FFF733FAE9E7F3
:103D80001546EAE76FF0040101F02AF8C9E700BF21
:103D90006C0C0024993D0408836810B504465BB19F
:103DA000FFF785FF40B1204600F0CCFA0022BDE8C5
:103DB0001040114600F04EBC10BD38B5054610B19C
:103DC0000378F62B07D028466FF0030101F008F8BE
:103DD0006FF0030038BD84683CB100F0B3FA0122F3
:103DE000002100F037FC0020F4E7FFF771FF38B93D
:103DF00028466FF0100100F0F3FF6FF00200E9E7D2
:103E00002046E7E738B50D46044610B10378F62B97
:103E100007D020466FF0030100F0E2FF6FF00300CF
:103E200038BDFFF744FF68B975B12946632000F03B
:103E3000F7FC20B1064B2046596900F071FA6FF08B
:103E40000100EDE70020EBE76FF00200E8E700BFBC
:103E50006C0C002470B5054610B10378F62B07D022
:103E600028466FF0030100F0BBFF6FF0030070BD48
:103E7000836863B1284600F065FA00226FF0020102
:103E800000F0E8FBA8680028F4D100F0C9FAAB788C
:103E9000002613F001032E700FD0094B2946D3F8EA
:103EA000984024B12046FFF730FA3046DFE7D3F8D8
:103EB0008000FFF7CCF92046D9E71846D7E700BFC6
:103EC0006C0C002410B50446EFF3058333B10020D9
:103ED0006FF0050100F084FF002010BDFFF7DCFE4D
:103EE0000028F4D12046DFF808C000DFF5E700BF66
:103EF000013D0408024608B5EFF3058343B182B9DA
:103F000010466FF0030100F06BFF6FF0030008BD77
:103F1000FFF7C2FE0028F2D11046DFF824C000DF10
:103F2000F5E71378F62BEBD10029E9D11046FFF71E
:103F3000BEFE002814BF00206FF00200E7E700BFBC
:103F4000053E040810B50446EFF3058343B184B978
:103F500020466FF0030100F043FF6FF0030010BD37
:103F6000FFF79AFE0028F2D12046DFF830C000DFCC
:103F7000F5E72378F62BEBD12046FFF7A9FE20B119
:103F8000204600F0B7F80020E9E720466FF0100166
:103F900000F026FF6FF00200E1E700BFBB3D040820
:103FA000024608B5EFF305833BB110466FF00501FB
:103FB00000F016FF6FF0050008BDFFF76DFE00284A
:103FC000F3D11046DFF804C000DFF5E7553E0408E2
:103FD00010B5D0E85F3F5A1C914200D80022C0E8DB
:103FE000542F04B1F5E798B210BD000038B51C4C51
:103FF00000F08CFFE3680133E36000F0CFF90020AC
:1040000000F00EFA236D03B19847226C32B3A36916
:10401000E16B994203D0D969E36301B9DA61DA69E6
:10402000C2B9237A022B19D1656ABDB1E36B95F948
:10403000202093F920309A4210D1284600F08BF9C5
:10404000E06B00F0A3F9284600F0E2F9236CE56389
:10405000EB6103E0013ADA61002AE2D038BD00BF2B
:104060006C0C002470B5224C04F1560504F15A067C
:10407000B4F85410D5E85F3F13B9BFF32F8F04E0B5
:104080005A1EC5E8502F00B1F4E79BB25BB330462F
:10409000FFF79EFFE36D53F8200020B30378F13B58
:1040A000082BE5D801A252F823F000BFD140040844
:1040B00071400408D74004087140040871400408A6
:1040C000DB400408DF40040871400408E3400408B2
:1040D000236E9847CCE7636EFBE7A36EF9E7E36EC8
:1040E000F7E7236FF5E70020BDE8704000F098B9CE
:1040F0006C0C002470B5164C0546B4F8541004F14D
:104100005602D2E85F3F994202D8BFF32F8F04E0F6
:10411000581CC2E8560F06B1F3E79BB2994205D886
:1041200029460220BDE87040FEF79FBF04F1580009
:10413000FFF74EFFE36D43F82050637A23B9054B38
:104140004FF080525A6070BD0123A372FBE700BF9D
:104150006C0C002400ED00E0EFF310832BB9EFF3BB
:104160001180003818BF0120704701207047037884
:10417000F12B00D07047C068F9E7000010B5C469A2
:10418000621CD0E904310CD103B1596142691AB102
:1041900013610023436101E0074A13630023C361F5
:1041A00010BD1BB1DA6959612244DA614269002A03
:1041B000EED1014AD362F1E76C0C002401230A4AD4
:1041C00090F9201043701C32936810B51BB193F91D
:1041D00020408C4205DCC0E90232906003B1D86017
:1041E00010BD1A469B68F1E76C0C0024014B58691E
:1041F000704700BF6C0C002408B500F001FEDFF82A
:1042000010C000DF4FF0FF31002000F0D7FDFEE7C7
:10421000BD460408930710B502F0010422D400F152
:10422000280384B153E8000F00EA01028A4203D058
:10423000BFF32F8F002005E020EA010243E80024AD
:1042400004B1EFE710BD53E8000F084203D1BFF3FC
:104250002F8F002005E020EA010243E8002404B18A
:10426000F1E7EFE7806A01EA00031CB1994218BF49
:104270000020E7E7002B08BF0020E3E7084A002101
:10428000136B10B53BB94FF0FF34C0E90431C46182
:1042900021B1086110BD19461B69F3E71063F9E706
:1042A0006C0C0024002310B50380044683789A0721
:1042B00008D513F0100F016B0E4B0FD0D3F884000C
:1042C000FFF723F8A378DB0712D50A4B2146D3F872
:1042D000880038B1BDE81040FFF717B8586FFEF7F7
:1042E000B6FFEFE7D3F88000BDE81040FEF7AFBFA0
:1042F00010BD00BF6C0C0024C2780346D20701D465
:10430000FFF7D0BF042242700022C260034A516B03
:10431000816001B1C8605363704700BF6C0C00241A
:1043200091F92020836810B51BB193F92040944285
:1043300005DAC1E90230816003B1D96010BD1846C9
:104340009B68F1E783689A68826002B1D0600022BE
:104350001846DA607047C2682AB18368936003B177
:10436000DA600023C360704710B50146044664B1AB
:104370002378F12B07D00846FFF7EDFF2046BDE874
:104380001040FFF7CDBFE468F1E710BD01230146FF
:1043900043700148FFF7C4BF880C002438B5164DA0
:1043A000EC6A44B3E369013BE36123BB6378732B9D
:1043B00006D009D8532B0BD003F0DF03432B0DD1CC
:1043C0002046FFF7D4FE09E003F0EF03832BF6E766
:1043D0002046FFF7CCFE2146FFF7D8FB2046FFF72B
:1043E000BAFFFFF7D3FF246924B1E369002BDDD0C6
:1043F00000236361EC6238BD6C0C002490F822301D
:10440000826B13F0100F0CBF602020201044704707
:1044100002234370014B9861704700BF6C0C00246D
:1044200070B5124D04462E7A696990B9022E0FD1EB
:104430006C6A6CB194F9202091F920309A4207DD22
:104440002046FFF788FF0846FFF7B8FE6670AC61AC
:1044500070BD022E05D190F9202091F920309A42AA
:10446000F1DC2046BDE87040FFF790BF6C0C0024E3
:104470002DE9F04F85B08146029128B96FF0030114
:10448000002400F09BFCBCE0002A45D0966846B1B1
:10449000B40702D1D368432B06D86FF0080100207F
:1044A000EEE7D368002BF8D19769D2E904453CB117
:1044B000600702D1002D40F0B2806FF00A01EEE7F4
:1044C0002FB17B1E372B03D96FF00B01E7E71827BD
:1044D000002D40F0A880D2E900A301934EBB574BBA
:1044E000D3F88800F0B1FEF7F6FE064600283AD071
:1044F0004FF00108002C44D1DFF840B1E5B9504A33
:10450000DBF88400556DB8B1FEF7E5FE0246E0B178
:1045100048F01008344623E0924614461827154602
:104520000192DCE701224421D3F88000FEF75AFE15
:10453000DBE74FF00008DDE722462946DBF8740090
:10454000FEF750FE02460028E4D1B8F1000F16D065
:10455000DBF8882052B110463146FEF7D6FE002225
:1045600048F002087CB96FF0040198E73146DBF8A7
:1045700080000392FEF76BFE039A1446F0E7424672
:10458000EEE72246344640F2F1137FB2FD2184F873
:1045900002802380019BC4F804A0E370002384F808
:1045A000207084F8217061846563C4E90233C4E932
:1045B0000433C4E90633C4E90933C4E90B32A5F175
:1045C00040031344C4E90E391E4B13601C4B1B6897
:1045D0005B071AD4A36B00201A4603F1340143F899
:1045E000040B9942FBD1184B2046C2E90D394FF01C
:1045F0008073D363029B1362104B144A1A66FFF751
:104600000FFF204605B0BDE8F08FAD084FF0CC336A
:10461000113D002DDED0013D42F8043FF9E7002FA7
:104620007FF44FAF182769077FF447AFA5F1480122
:10463000074B99427FF64FAF3FE700BF6C0C002459
:1046400008170608A52E5AE2F9410408794604081D
:10465000B7FFFF7F38B504461546FFF7CFFE016070
:104660002046FFF78BFD1DB1BDE83840FFF7D8BEEF
:10467000BDE83840FFF78ABE10B543780446332BB7
:104680000CD1416A90F82320FFF7C4FD014628B100
:1046900020460022BDE81040FFF7DCBF10BD10B57A
:1046A0000446806918B100221146FFF7D3FF6378F2
:1046B000232B02BFA36800229A6110BD70B50F4C76
:1046C000267A022E18D1636AB3B16569E86AFFF7EA
:1046D0003BFA2846FFF7E3FF04F11C00FFF732FE28
:1046E0004670A061EFF30983AB6300232846636142
:1046F000BDE87040FFF700BE70BD00BF6C0C002429
:1047000010B5044610B10378F12B07D020466FF0A6
:10471000030100F053FB6FF0030010BD437803F07A
:104720000F03022B1ED0032B2BD0012B2ED1FFF712
:1047300012FEE06AFFF708FA2046FFF7B0FF617843
:10474000022926D11548FFF7FDFD154B41709861F0
:10475000EFF30982A26300225A612046FFF7CCFDE5
:104760000020DAE70E4B1A7A022A02D15B6A002B8C
:10477000DFD16FF00201204600F020FB6FF0020055
:10478000CBE7FFF7E8FDFFF7F9FCD2E76FF0020196
:10479000F2E70020FFF744FEDFE700BF880C0024AB
:1047A0006C0C002470B5044620B10378F12B01D1C4
:1047B000002908DA6FF003056FF003012046FEF7C9
:1047C000B4FA284670BD4378042B06D16FF002017D
:1047D0006FF00205FEF7A9FAF3E700F1280353E8AA
:1047E000002F42EA010543E8005606B1F7E7437897
:1047F000332BE6D1416A90F82320FFF70BFD0146E9
:104800000028DED094F8233001229B0756BF656A4A
:10481000054620EA05052046FFF71CFFD1E700000A
:1048200038B5174C0246237A022B27D1606A60B153
:1048300060694B1C427009D1FFF720FD1148FFF75A
:1048400081FD02234370A061012038BDE36A00228C
:1048500013B1DD69A9420BD2C161C0E904325AB17A
:104860001061002BEAD0DA695861511AD961E5E785
:104870001A46491B1B69EBE7E062F2E70020E4E718
:104880006C0C0024880C0024F8B5164B05460F4626
:1048900016465C693CB920466FF00701FEF745FA01
:1048A0004FF0FF30F8BD002807DA20466FF0030113
:1048B000FEF73BFA6FF00300F4E70A460146204694
:1048C000FFF7A8FC0028EDD14EB1314633206562D8
:1048D00084F82370FFF7A4FF6FF00100E2E76FF0A8
:1048E0000200DFE76C0C002438B50D4C00210D48A8
:1048F000A26DFFF7BDFD0C4D636EA8625BB19847DA
:1049000058B9E26DE96C206EFFF7B2FDA86400387B
:1049100018BF012038BD0120FCE70020FAE700BFE6
:10492000081706082D4D04086C0C002410B5044629
:10493000EFF3058333B100206FF0050100F03EFA7C
:10494000002010BDFFF708FC0028F4D12046DFF856
:1049500008C000DFF5E700BF7144040808B5EFF3B5
:10496000058313B1054B586908BDFFF7F5FB002817
:10497000F8D1DFF80CC000DFF6E700BF6C0C0024B4
:10498000ED41040810B5044600F046FAEFF3058344
:104990003BB120466FF0050100F010FA6FF0050002
:1049A00010BDFFF7D9FB0028F3D12046DFF804C083
:1049B00000DFF5E701470408024638B5EFF3058349
:1049C0004BB192B96FF003046FF003011046FEF78C
:1049D000ACF9204638BDFFF7BFFB0028F1D11046E7
:1049E000DFF844C000DF0446F3E71378F12BE9D188
:1049F0000029E7DB5378042B07D16FF00201104642
:104A00006FF00204FEF791F9E3E702F1280353E89F
:104A1000000F40EA010443E8004505B1F7E71046FE
:104A2000FFF768FBD5E700BFA547040810B50446AB
:104A3000EFF305833BB100206FF00501FEF775F938
:104A40006FF0050010BDFFF787FB0028F3D120466B
:104A5000DFF804C000DFF5E7894804080C4A30B5E8
:104A6000536C002413B11D698D420AD90161C0E95C
:104A700002431BB11D699860691A19612CB1E0608D
:104A800030BD1C46491BDB68ECE75064F8E700BF0B
:104A90006C0C00242DE9F041184D6C6C54B3236963
:104AA00001276E69013B2361236913BBE3680BB1E6
:104AB000A2689A606B64002304F11801E86C1A463E
:104AC000FEF770FE58B121460320D5E905836B61DE
:104AD000FEF7CBFA6B6913B9B04508BF0026E3783F
:104AE000012B09D161692046FFF7B8FF6C6C002CDF
:104AF000DAD16E61BDE8F0816770F7E76C0C0024D5
:104B000008B5FEF73DFE18B9034B044A1A6508BD07
:104B10004FF0FF30FBE700BF6C0C0024954A0408FF
:104B2000044607B54FF0FF33002269462046FEF7E2
:104B300079FE0028F6D1DDE900309847F2E7000061
:104B400008B5094A094B1A60094B9B1A094A1360B8
:104B5000094A0A4B1A600A4B9B1A0A4A136000F072
:104B600051F800F083F800BF00FC072454340024FF
:104B7000000008245034002460F70024BC460024C0
:104B800000FC0724B846002438B50E480B250E4B10
:104B90001C24456003600D4BC4608360FFF71CF864
:104BA0000B4B18600B480C4BC460C0E900350B4B35
:104BB0008360FFF711F80A4B1860BDE8384016F023
:104BC00043BD00BF20340024DC1706083434002421
:104BD00030340024F0330024E9170608043400249C
:104BE00000340024FDF732BC024B4FF0FF3118684F
:104BF000FFF70AB830340024014B1868FFF71CB8DF
:104C00003034002408B504F0F5FB0C4B0C499868CF
:104C10004FF00053C21802F16042126843F8042BAF
:104C20008B42F7D1054B4FF000529A6012F068FAB0
:104C300013F000FCBDE8084000F015B800ED00E0FE
:104C4000980200207047704708B500F043F8FFF75E
:104C5000F9FFFFF799FFFFF7F6FF05F0E3FCBDE86A
:104C60000840FFF7BFBFFEF70BBA0000114C124B14
:104C700023614FF4004363614423E3600F4BA3605F
:104C80001823A3610E4B07B5224600210D4823606F
:104C9000FFF74CFE034628B922460B4900900B480B
:104CA00005F0D0FCFEF704FA002309491A460093E8
:104CB000F5E700BF10D60024105600245834002415
:104CC00003180608494C0408081806081D0101804D
:104CD000241806081FB5064B6C460FCB84E80F005E
:104CE0002046FEF779FF034B186004B010BD00BFEB
:104CF0003C1806080856002473B506460C461546AF
:104D000005F092FC58B90634324628462ABF054BB6
:104D1000054953F824100023009305F093FC02B0DA
:104D200070BD00BF001A06085419060808B500F047
:104D3000F7F80000002307B5421E00930023042A61
:104D400019D8DFE802F003080C10140001220C4906
:104D50000C4805F077FC02220B490C48F9E70322C6
:104D60000B490C48F5E704220B490C48F1E70522F2
:104D70000B490C48EDE702460B490C48E9E700BF38
:104D80004C180608250102806D18060826010280CD
:104D90009218060827010280C71806082801028019
:104DA000021906082A010280421906080001028041
:104DB0000146014AFFF7A0BF31010180014AFFF718
:104DC0009BBF00BF32010180014AFFF795BF00BFC2
:104DD00037010180014AFFF78FBF00BF3301018017
:104DE00011F1110F02D0024AFFF786BF704700BFD2
:104DF00034010180014AFFF77FBF00BF3801018005
:104E000010B5FFF7ABFD034B1B6813B1BDE81040B5
:104E1000184710BD9C340024024B1B6803B118478F
:104E2000704700BF9C340024024B987A003818BFAA
:104E3000012070476C0C002408B5FEF77DF90022B4
:104E4000064905F00DFDC31C04D98B220449054811
:104E500005F060F9BDE80840FEF782B9294E040864
:104E60003B1A06084D1A0608B0F57A7F10B50C46B5
:104E700004D0322219491A4805F04CF904F000FE1A
:104E80000028184A16DB00F16043F02103F5614366
:104E900083F80013916800F1100341F82340BFF339
:104EA0004F8F926852F823309C420AD03F220B4920
:104EB0000D48E1E700F00F03F021043B134419769D
:104EC000E8E7002808DB0123420900F01F0003FA8D
:104ED00000F0064B43F82200002010BD3B1A0608E4
:104EE0007A1A060800ED00E0871A060800E100E0E3
:104EF00008B505F03DFCBDE8084004F0ECBE00003C
:104F0000014B186804F01CBFE8450024014B1868E9
:104F100004F0D8BEE845002408B504F0B1FD08BD92
:104F2000024C08B523689847FCE700BF100D002429
:104F300003680BB1084618477047CB68C3600BB1D4
:104F40005B68184770470000044B0022C3E9012248
:104F50001A611A60024ADA60704700BFA034002468
:104F6000314F040810B50022034600F1110403F884
:104F7000012B03F8012B9C42FBD1418210BD0000A4
:104F800042F60211024808B5FFF7ECFF08BD00BF6A
:104F9000B4340024C36810B52BB94FF4FD72044932
:104FA000044805F0B7F81B68BDE81040184700BF7B
:104FB000D81A0608E31A060808B5FBF75AFC08BD1C
:104FC000C36810B52BB94FF4FD720449044805F0CD
:104FD000A1F81B68BDE81040184700BFD81A0608A2
:104FE000E31A060810B40168D0E90132541001EB4D
:104FF0006200D20748BF0A595DF8044B48BFD35836
:1050000018470000C36810B52BB94FF4FD7204496E
:10501000044805F07FF81B68BDE81040184700BF42
:10502000D81A0608E31A060810B5044606F0F0F987
:10503000204610BD10B5084C204606F0A9F9002303
:105040002046064A84F8243023630549C4E90A331C
:10505000BDE8104005F036BDC8340024000000242F
:10506000295004080268814B9A422DE9F04393B01D
:1050700040F0F9800FF0AAFD05F044F97C4A0023C6
:10508000C2F88430BFF34F8F536923F480335361E8
:10509000BFF34F8FD2F8803043F6E074C3F3C900FA
:1050A000C3F34E335B0103EA0406014646EA817509
:1050B0000139C2F87452F9D2203B13F1200FF2D11A
:1050C000BFF34F8FBFF36F8F05F032F9694B0126A5
:1050D0000025D3F8E0204FF400470DA9664842F0C0
:1050E00001024FF0300902244FF00308C3F8E0201A
:1050F000D3F8E02002F001020192019AD3F8E020F7
:1051000042F00402C3F8E020D3F8E02002F00402E9
:105110000292029AD3F8E02042F04002C3F8E02065
:10512000D3F8E02002F040020392039AD3F8D8208B
:1051300042F40042C3F8D820D3F8D82002F4004249
:105140000492049AD3F8D82042F48032C3F8D820CD
:10515000D3F8D82002F480320592059AD3F8D820EB
:1051600042F40032C3F8D820D3F8D82002F4003239
:105170000692069AD3F8E02042F40072C3F8E020C9
:10518000D3F8E03003F400730793079BCDE90D7665
:10519000CDE90F550AF0E4FA0DA93848CDF834905E
:1051A0000AF0DEFA3246102134480AF0BFFB3246DC
:1051B000202132480AF0BAFB0DA931480E960D9411
:1051C0000F950AF0CDFA324621462D480AF0AEFB83
:1051D000192008F06BFA39462A4627480AF0A6FB40
:1051E000642008F063FA3246394623480AF09EFBF1
:1051F0000B274FF4605308A922480A95CDE90834DB
:10520000CDE90B870AF0ACFA08A91C480C97CDE948
:105210000844CDE90A580AF0A3FA08A917480C97E0
:10522000CDE90894CDE90A480AF09AFA802308A942
:1052300013480C97CDE90834CDE90A680AF090FAD2
:10524000042308A90E480C97CDE90834CDE90A4893
:105250000AF086FA08A90A480C97CDE90844CDE976
:105260000A580AF07DFA13B0BDE8F08300800240CE
:1052700000ED00E0004402580024025800080258E3
:10528000000002580018025830B570B1CC6864B103
:105290008A6852B10B6943B10D6849688560C16085
:1052A0008361C0E90424002030BD4FF0FF30FBE7EC
:1052B00073B5002346680446019366B1A369984715
:1052C0000546A3699847431BB3F5FA6FF9D9012343
:1052D0000025636027E0836803B1984720230025F9
:1052E0002360636901AA12213046984700281DDB1C
:1052F000019B03F01F03B3421AD1002526602068EA
:105300001F2833D87DB923694FF4004229469847B6
:1053100000282EDB636901AA2946206898470028E7
:105320000ADA6FF00405284602B070BD6FF004057C
:105330000136202ED5D1E2E7A36998470646019BA6
:105340001B0402D4002DB9D0EDE7A3699847801B58
:10535000B0F5FA7F07D8636901AA00212068984751
:105360000028ECDADDE76FF00105E8E76FF00205F1
:10537000D9E76FF00305D6E737B500254369044642
:1053800001AA0121006801959847A84203DA6FF04D
:10539000040003B030BD636901AA01212068984769
:1053A0000028F4DB019B5B072CD5636901AA294621
:1053B000206898470028EADB019BDD040ED403F443
:1053C0000452B2F5045F01D10220E2E7980401D54E
:1053D0000320DEE7D90513D50420DAE7636901AAC3
:1053E0001F21206898470028D1DB019BDA040BD5E8
:1053F00003F01C03182BE7D0082BE9D0142BEBD0BB
:105400000520C6E70120C4E70620C2E740F2DC50D1
:105410007047002070470620704770477047C0F8FB
:105420006C1170470020704710F074BEF0B500F5A5
:1054300082779FB006460D46384605F0B1FF7822C8
:105440000021684616F0FCFD00226B462C461146F2
:105450000CB30A2911D10024184A1949022004F07A
:1054600047F9AB7B012B02D9284600F06DFD384689
:1054700005F0B4FF20461FB0F0BD60681860608979
:105480000244586009B143F8043C246804B99C60A4
:1054900001310C33DCE70B49301D4A603222C1F880
:1054A00008D009F0B3FC034628B1074A022004499A
:1054B00004F01EF9D5E70124D3E700BFFC1A060863
:1054C000231B060824350024281B0608032A084647
:1054D000024928BF032216F0B5BC00BFA32106086D
:1054E00008B5044A0820044904F002F9BDE8084060
:1054F00005F0FCB9501B0608231B060810B4016810
:10550000D0E90132541001EB6200D20748BF0A59BA
:105510005DF8044B48BFD358184700000A4B10B53C
:105520000446036000F5AE70FBF7A3F904F5A6701E
:10553000FBF79FF904F5947005F06AFF04F582709B
:1055400005F066FF204610BD881C060813B500F55F
:10555000A6700C46884206D00190FBF78AF92146D6
:105560000198FFF7EAFC02B010BD13B500F5AE706C
:105570000C46884206D00190FBF77BF92146019842
:10558000FFF7DBFC02B010BD10B5064C0649204603
:10559000FFF77AFE2046FFF78BFEB0FA80F0400955
:1055A00010BD00BF04350024140D00240148FFF78E
:1055B000E3BE00BF043500240238032815D8DFE815
:1055C00000F0020A0C114FF400530B604FF48043BB
:1055D0000120136070470023F7E74FF400530B607E
:1055E0000023F5E700230B60F2E70020704708B5C1
:1055F00000F092FA08BD000038B500250A4B0446B9
:10560000036000F5827040F8485C05F0C1FE04F5C7
:10561000947005F0BDFE2046C4F85851C4F8685196
:10562000C4F8705138BD00BF881C060830B5051D90
:1056300085B000230C46284601A9009309F0BEFC62
:1056400048B96946284609F004FD38B1184A0220D5
:10565000184904F04DF84FF0FF3026E0284609F0D5
:1056600015FD0099002911DD019B03F01F020A447A
:10567000BFF34F8F10481A44C0F85C322033D11A60
:105680000029F9DCBFF34F8FBFF36F8F4FF4C17266
:10569000BDF80010002000F089FC206028B1BDF8A2
:1056A0000020019900F008FD002005B030BD00BFCA
:1056B0005B1B0608231B060800ED00E073B50446DB
:1056C000002600F594752846019605F069FE01A9AB
:1056D0002046FFF7ABFF002804DA284605F07EFEDF
:1056E00002B070BD019961B1D4F858312BB94FF4B3
:1056F000FD720649064804F00DFD1B6804F5A6700E
:105700009847284605F06AFEDDE700BFD81A06086C
:10571000E31A060838B50E4C05462378BFF35B8FB5
:10572000DA0708D4204605F0DDF920B1094B204600
:105730001D6005F0F9F9074C4FF0FF320021012000
:10574000FFF774F9C307F7D52068FFF7B7FFF3E752
:1057500000350024D03600243D200022072108B562
:1057600008F0C0FE3D20BDE8084008F0EDBE002076
:10577000704700000022064B1B68027080224371B4
:105780004270E12282701A0CC2701A0A02717047CC
:1057900000E8F11F10B50446FFF7E9FF20B92046E5
:1057A000BDE81040FFF7E6BF10BD000070B586B041
:1057B000044608F0EBFE2F492F4B02AD01260434BE
:1057C0002846ADF80860CDE903134FF080730593C8
:1057D00008F0FEFE40F201132848ADF80830284BCF
:1057E000CDE903034FF480332846059308F0F0FE1B
:1057F000042008F0DBFE234B28462360FFF7CAFF96
:10580000214B656008202361204B2672E36040F243
:10581000F4531F4A63610A231E490093042303F0D3
:1058200067FF204609F08AFE054600BB1A4E014676
:105830003022301D16F004FC212333604FF4403336
:10584000C6E90453154E2946013532460023204649
:1058500006F5BF6609F048FA042DF4D1104A082075
:105860000C4903F045FFFFF78FFE06B070BD002026
:10587000FBE700BF000004300900000300400430D3
:105880000D000003008002400000043000010430DD
:10589000861B0608231B0608243500240004043058
:1058A000A01B0608F0B505468BB005F009F82846A0
:1058B000FFF77CFF064600284BD02022002102A8DB
:1058C00016F0BEFB244B4FF40060019315F06EFF01
:1058D00005F1C00301AA2946059003934FF4006324
:1058E0001E4806934423049328230793FFF71EF8CA
:1058F000C5F8BC0003F01CFA194B102107460493AD
:10590000184B019502930023039302F0ADFF044668
:10591000A0B101A9FFF711FB2046C82103F047F908
:105920002046C82103F046F920460F4903F045F907
:1059300022460E49384603F057F8044601A8C5F838
:105940007441FAF796FF0A20FCF7E4FF2846FFF7B8
:1059500003FF30460BB0F0BDBA1B0608155704080C
:10596000741C0608455A0408B94F0408954F0408EA
:10597000084608B5FFF70EFF012008BD10B50B4C17
:105980002378BFF35B8FDB070ED4204605F0AAF81F
:1059900050B10748FFF730FE204605F0C5F8054A2C
:1059A0000549034805F08EF8014810BDFC34002479
:1059B00058350024000000241D55040837B50D4655
:1059C00004460192FFF7DAFF019B2A462146043084
:1059D00009F046FC003818BF0120404203B030BD3A
:1059E00037B50D4604460192FFF7C8FF019B2A46D2
:1059F0002146043009F062FC003818BF0120404203
:105A000003B030BD08B5FFF7B9FF043009F05AFD07
:105A1000002008BD002307B51A460249024800933A
:105A200004F010FECC1B060805001180002307B50A
:105A30001A4602490248009304F004FE001C0608BE
:105A400005001180F0B59DB00446FFF7AFFD0128B9
:105A50000546D4F8707138DD012F18DC01AA02A9BF
:105A6000FFF7AAFD18B94FF40053CDE90130261D08
:105A700003A9304609F054FC019B03A93046099361
:105A8000029B089309F012FD304609F04BF9D4F857
:105A900068316BB1012D0FDD012F09DC012104F507
:105AA000AE70FFF7AFFA124A1249082003F020FE49
:105AB000C4F870511DB0F0BD012FF9DD002104F5CF
:105AC000AE70FFF79FFA0C4AEEE7012FDFDD0B4BBC
:105AD0004FF00052C3F88420BFF34F8FBFF36F8F96
